:100000000C9446000C9465000C9465000C946500FB
:100010000C9465000C9465000C9465000C946500CC
:100020000C9465000C9465000C9465000C946500BC
:100030000C9465000C94B4000C9465000C9465005D
:100040000C9465000C9465000C9465000C9465009C
:100050000C9465000C9465000C9465000C9465008C
:100060000C9465000C9465000C9465000C9465007C
:100070000C9465000C9465000C9465000C9465006C
:100080000C9465000C9465000C94650011241FBE4F
:10009000CFEFD0E4DEBFCDBF11E0A0E0B1E0E2E2FF
:1000A000F3E000E00BBF02C007900D92A231B10750
:1000B000D9F711E0A2E1B1E001C01D92AD31B10765
:1000C000E1F70E9445010C948F010C940000CF933E
:1000D000C82F8A3019F48DE00E9467009091C0000B
:1000E00095FFFCCFC093C60080E090E0CF910895CB
:1000F00060930001709301018093020190930301CA
:100100006093150170931601809317019093180165
:1001100008958BE0809381008DE790E090938900B3
:100120008093880082E080936F0010928500109287
:1001300084008091000190910101A0910201B09191
:1001400003018093150190931601A0931701B093BA
:1001500018018FB780688FBF0895109281000895AD
:1001600081E08093190108951F920F920FB60F92AC
:1001700011240BB60F922F933F934F935F936F937E
:100180007F938F939F93AF93BF93EF93FF93809150
:10019000150190911601A0911701B09118010197D6
:1001A000A109B1098093150190931601A09317013D
:1001B000B0931801892B8A2B8B2B91F40E94B000ED
:1001C0008091000190910101A0910201B091030181
:1001D0008093150190931601A0931701B093180115
:1001E000FF91EF91BF91AF919F918F917F916F910F
:1001F0005F914F913F912F910F900BBE0F900FBECB
:100200000F901F90189580911A0190911B018130D9
:10021000910579F0E0F4892B39F481E090E0909336
:100220001B0180931A0117C010921B0110921A0132
:1002300012C0019739F482E090E090931B01809303
:100240001A0109C010921B0110921A0104C01092E9
:100250001B0110921A0180911A0190911B018130AB
:10026000910541F018F0029749F00CC081E08093AD
:100270001C01089582E080931C01089584E080931E
:100280001C01089510921C0108958FEF84B915B8D0
:1002900011B882B964EF71E080E090E00E947800CC
:1002A0000E94890010921B0110921A0180B18F3FA9
:1002B00051F080911201811104C081E080931201FC
:1002C00002C0109212018091120181111BC00E9484
:1002D000030180911301823038F498E09093140167
:1002E0008F5F809313010EC09EEF980F923050F4F1
:1002F00010921401833019F41092130103C083E0AB
:100300008093130190911C0180911401890F85B98C
:10031000809119018823E1F310921901C7CFF89455
:02032000FFCF0D
:100322000100000000000002000000006700000061
:020332000000C9
:00000001FF
