:100000000C9446000C9465000C9465000C946500FB
:100010000C9465000C9465000C9465000C946500CC
:100020000C9465000C9465000C9465000C946500BC
:100030000C9465000C94B4000C9465000C9465005D
:100040000C9465000C9465000C9465000C9465009C
:100050000C9465000C9465000C9465000C9465008C
:100060000C9465000C9465000C9465000C9465007C
:100070000C9465000C9465000C9465000C9465006C
:100080000C9465000C9465000C94650011241FBE4F
:10009000CFEFD0E4DEBFCDBF11E0A0E0B1E0E2E5FC
:1000A000F4E000E00BBF02C007900D92A231B1074F
:1000B000D9F711E0A2E1B1E001C01D92AF31B10763
:1000C000E1F70E94B2010C9427020C940000CF9338
:1000D000C82F8A3019F48DE00E9467009091C0000B
:1000E00095FFFCCFC093C60080E090E0CF910895CB
:1000F00060930001709301018093020190930301CA
:1001000060931701709318018093190190931A015D
:1001100008958BE0809381008DE790E090938900B3
:100120008093880082E080936F0010928500109287
:1001300084008091000190910101A0910201B09191
:1001400003018093170190931801A0931901B093B4
:100150001A018FB780688FBF0895109281000895AB
:1001600081E080931B0108951F920F920FB60F92AA
:1001700011240BB60F922F933F934F935F936F937E
:100180007F938F939F93AF93BF93EF93FF93809150
:10019000170190911801A0911901B0911A010197CE
:1001A000A109B1098093170190931801A093190137
:1001B000B0931A01892B8A2B8B2B91F40E94B000EB
:1001C0008091000190910101A0910201B091030181
:1001D0008093170190931801A0931901B0931A010D
:1001E000FF91EF91BF91AF919F918F917F916F910F
:1001F0005F914F913F912F910F900BBE0F900FBECB
:100200000F901F90189540E050E00CC000002F5F49
:100210003F4F02C020E030E0273063E03607B4F300
:100220004F5F5F4F48175907ACF308955E9888B940
:100230005F9A00005F9882E090E00E9403010895B9
:1002400081E00E941601089584E690E00E94030177
:1002500088E30E94160186E00E9416018FE00E944A
:10026000160181E00E9416018AE090E00E940301DD
:1002700008955E9A88B95F9A00005F9881E090E0E7
:100280000E9403010895813120F481580E941601D3
:10029000089581550E9416010895EF92FF920F93E1
:1002A0001F93CF93DF93182FEB010E9420010EC004
:1002B00001E0010F812F0E9443017E018FEFE81AB8
:1002C000F80A88810E943901102FE7018881811185
:1002D000EFCFDF91CF911F910F91FF90EF90089595
:1002E00080911C0190911D018130910579F0E0F41D
:1002F000892B39F481E090E090931D0180931C01DB
:1003000017C010921D0110921C0112C0019739F400
:1003100082E090E090931D0180931C0109C010922F
:100320001D0110921C0104C010921D0110921C01AD
:1003300080911C0190911D018130910541F018F0D0
:10034000029749F00CC081E080931E01089582E07D
:1003500080931E01089584E080931E0108951092F9
:100360001E0108958FEF84B915B811B882B987B905
:1003700018B88AB91BB864EF71E080E090E00E9481
:1003800078000E9489000E94240110921D011092A1
:100390001C0180B18F3F51F080911401811104C084
:1003A00081E08093140102C0109214018091140125
:1003B00081111EC0109212010E94700180911501DE
:1003C000823038F498E0909316018F5F8093150186
:1003D00029C09EEF980F923028F5109216018330B5
:1003E00019F4109215011EC083E0809315011AC004
:1003F0008823C1F080911201811114C081E08093A3
:10040000120180911E01823031F4809113018F5FBF
:100410008093130107C080911301882319F0815044
:100420008093130190911E0180911601890F85B967
:1004300081E00E94430180911301805D0E94390197
:1004400080911B018823E1F310921B01A2CFF89445
:02045000FFCFDC
:100452000100000000000002000000006700000030
:02046200000098
:00000001FF
